S01D00005468756E6465725F6669726D776172655F76312E302E737265630D
S11300000C9434000C9451000C9451000C94510045
S11300100C9451000C9451000C9451000C94510018
S11300200C9451000C9451000C9451000C94510008
S11300300C9451000C9451000C9451000C945100F8
S11300400C9451000C9451000C9415020C948502EC
S11300500C9446020C9451000C9451000C945100E1
S11300600C9451000C94510011241FBECFEFD8E022
S1130070DEBFCDBF11E0A0E0B1E0E6E3F9E002C0ED
S113008005900D92AA31B107D9F721E0AAE1B1E0B8
S113009001C01D92AB32B207E1F70E94CD020C946D
S11300A099040C940000FC018085882349F0848124
S11300B095810196668177810E94420395838483AA
S11300C0828193810196668177810E9442039383A2
S11300D0828321E0448155814817590709F020E0C3
S11300E0208708950F931F93CF93DF938C01EB0127
S11300F089E090E00E947803FC0111830083D78398
S1130100C68313821282158214821086DF91CF91E6
S11301101F910F910895FC018681978120852111FB
S11301200FC042815381248135814217530720F047
S1130130CA01821B930B0895840F951F821B930B96
S11301400895DC0118962C91189721110FC0ED9198
S1130150FC91119712962D913C911397E20FF31F86
S113016060830E94530080E090E008958FEF9FEF3A
S11301700895FC01808581110BC091E04281538177
S1130180248135814217530709F090E0892F01C07B
S113019080E0817008950F931F93CF93DF93EC0158
S11301A08B010E94B900811116C0E881F9818C810C
S11301B09D81E80FF91F8081F801808318868C8166
S11301C09D8101966E817F810E9442039D838C8371
S11301D080E090E002C08FEF9FEFDF91CF911F91FD
S11301E00F910895FC0180850895FC0180E895E253
S11301F0A0E0B0E080839183A283B38386E085830B
S113020014821682178280E482878187148613867B
S11302101686158608950F931F93CF93DF93EC01F1
S113022080E48093C0001092C100E2ECF0E086E02C
S1130230808380818F739C81892B80838C81882328
S113024021F0803409F074C014C0288139814A81B6
S11302505B8160E970ED83E090E00E9456032150D9
S113026031093093C5002093C4008D81873059F43F
S113027011C0E2ECF0E080818E7F9885892B808329
S113028081E090E05DC0E2ECF0E09081997F892B01
S113029080830DC0E2ECF0E0808186608083E1EC35
S11302A0F0E080818460808381E080932201E2EC2D
S11302B0F0E08081877F9F81892B808380818F7C80
S11302C09E81892B80830A8510E0C8010E947803EF
S11302D090931D0180931C01009769F1B8010E945D
S11302E072009093240180932301098510E0C801D2
S11302F00E94780390931B0180931A010097F1F0F8
S1130300B8010E94720090932601809325018B8589
S11303109C85009721F09093210180932001E1ECCA
S1130320F0E0808188698083789480E090E008C060
S113033081E090E005C081E090E002C081E090E0BF
S1130340DF91CF911F910F910895CF93C82F809182
S11303502501909126010E94F20081110FC06C2F9B
S113036080912501909126010E94A100E1ECF0E02A
S113037080818062808380E090E002C081E090E030
S1130380CF9108950F931F93CF93DF936623D9F0F2
S11303908C01EC016150262F30E02F5F3F4F020F9C
S11303A0131F80912501909126010E94F200811172
S11303B012C0699180912501909126010E94A100AB
S11303C0C017D10771F7E1ECF0E08081806280838F
S11303D080E090E002C081E090E0DF91CF911F9136
S11303E00F91089580912301909124010E948B0024
S11303F021E0892B09F420E0822F0895CF93DF9325
S11304001F92CDB7DEB7BE016F5F7F4F809123018E
S1130410909124010E94CB00892B11F4898101C0A1
S113042080E00F90DF91CF9108951F920F920FB645
S11304300F9211242F933F934F935F936F937F9366
S11304408F939F93AF93BF93EF93FF936091C600F5
S113045080912301909124010E94A100E091200148
S1130460F0912101309709F00995FF91EF91BF9127
S1130470AF919F918F917F916F915F914F913F9138
S11304802F910F900FBE0F901F9018951F920F92EF
S11304900FB60F9211242F933F934F935F936F9353
S11304A07F938F939F93AF93BF93EF93FF93CF93D8
S11304B0DF931F92CDB7DEB7BE016F5F7F4F809190
S11304C02501909126010E94CB00892B19F4898182
S11304D08093C600E0911E01F0911F01309709F04E
S11304E009950F90DF91CF91FF91EF91BF91AF915B
S11304F09F918F917F916F915F914F913F912F9138
S11305000F900FBE0F901F9018951F920F920FB669
S11305100F9211242F933F934F935F936F937F9385
S11305208F939F93AF93BF93EF93FF93CF93DF93F7
S11305301F92CDB7DEB780912501909126010E94CC
S1130540B900882331F0E1ECF0E080818F7D808375
S11305500CC0BE016F5F7F4F8091250190912601F1
S11305600E94CB0089818093C6000F90DF91CF91C8
S1130570FF91EF91BF91AF919F918F917F916F9177
S11305805F914F913F912F910F900FBE0F901F904D
S1130590189588B1809588B90895CF93DF93CDB726
S11305A0DEB7A2970FB6F894DEBF0FBECDBF2FE71C
S11305B08AE196E0215080409040E1F700C00000BD
S11305C0CE0101960E94F50080E09BE4A0E0B0E03B
S11305D089839A83AB83BC831D8286E08E831F82CA
S11305E0188680E58A8789EC92E09D878C87CE0106
S11305F001960E940B01892B09F0FFCF83E1E6E00D
S1130600F1E0DE01509601900D928A95E1F700E049
S113061010E07E0120E1E20EF11C05C00E94FE0103
S11306208F5F0E94A5010E94F2018111F7CF0F5F35
S11306301F4F0A301105E1F4F70101900020E9F79A
S11306403197BF016E197F09C7010E94C2018AE078
S11306500E94A5018DE00E94A5018FE79CEF2AE08E
S1130660815090402040E1F700C0000000E010E01D
S11306708FE798E321E0815090402040E1F700C0EB
S11306800000D1CFAA1BBB1B51E107C0AA1FBB1F8F
S1130690A617B70710F0A61BB70B881F991F5A950A
S11306A0A9F780959095BC01CD010895A1E21A2E79
S11306B0AA1BBB1BFD010DC0AA1FBB1FEE1FFF1F02
S11306C0A217B307E407F50720F0A21BB30BE40B52
S11306D0F50B661F771F881F991F1A9469F7609599
S11306E07095809590959B01AC01BD01CF01089553
S11306F00F931F93CF93DF938230910510F482E020
S113070090E0E0912901F0912A0120E030E0A0E09E
S1130710B0E0309719F1408151810281138148176B
S11307205907C8F08417950769F4109731F01296A9
S11307300C93129713961C9327C0009329011093CE
S11307402A0122C02115310519F04217530718F464
S11307509A01BD01EF01DF01F801DBCF211531055D
S1130760F9F0281B390B2430310580F48A819B81F0
S11307706115710521F0FB019383828304C090937A
S11307802A0180932901FE01329644C0FE01E20F42
S1130790F31F8193919322503109398328833AC0FE
S11307A02091270130912801232B41F4209102014B
S11307B030910301309328012093270120910001F7
S11307C0309101012115310541F42DB73EB7409117
S11307D0040150910501241B350BE0912701F09190
S11307E02801E217F307A0F42E1B3F0B2817390743
S11307F078F0AC014E5F5F4F2417350748F04E0F79
S11308005F1F50932801409327018193919302C065
S1130810E0E0F0E0CF01DF91CF911F910F910895B7
S1130820CF93DF93009709F481C0FC0132971382C0
S11308301282A0912901B0912A01109781F420819C
S11308403181820F931F20912701309128012817AD
S1130850390751F5F0932801E093270167C0ED01B2
S113086020E030E0CE17DF0740F44A815B819E012F
S113087041155105F1F0EA01F5CFD383C2834081DC
S11308805181840F951FC817D90759F4888199811C
S1130890840F951F0296918380838A819B81938321
S11308A082832115310529F4F0932A01E09329016B
S11308B03DC0E901FB83EA8349915991C40FD51FD7
S11308C0EC17FD0761F480819181840F951F0296D6
S11308D0E90199838883828193819B838A83E0E001
S11308E0F0E012968D919C911397009719F0FD01F9
S11308F0DC01F7CF8D919C9111979D012E5F3F4FA5
S1130900820F931F2091270130912801281739075E
S113091069F4309729F410922A011092290102C037
S113092013821282B0932801A0932701DF91CF9103
S10909300895F894FFCFC6
S113093600002B01200068656C6C6F2041746D65A6
S10D0946676120333238702100008D
S9030000FC
