S01D00005468756E6465725F6669726D776172655F76312E302E737265630D
S11300000C9434000C9451000C9451000C94510045
S11300100C9451000C9451000C9451000C94510018
S11300200C9451000C9451000C9451000C94510008
S11300300C9451000C9451000C9451000C945100F8
S11300400C9451000C9451000C9451000C945100E8
S11300500C9451000C9451000C9451000C945100D8
S11300600C9451000C94510011241FBECFEFD8E022
S1130070DEBFCDBF11E0A0E0B1E0E0EEF2E002C0EF
S113008005900D92A431B107D9F721E0A4E1B1E0C4
S113009001C01D92A531B207E1F70E940E010C9434
S11300A06E010C940000FC0180E895E2A0E0B0E051
S11300B080839183A283B38386E08583148216822E
S11300C0178281E080878187138612860895CF93F3
S11300D0DF93EC01E1ECF0E08081877E8083E2EC49
S11300E0F0E080818F739C81892B80838C818823AD
S11300F021F0803409F052C014C0288139814A812A
S11301005B8160E970ED83E090E00E944C01215036
S113011031093093C5002093C4008D81873059F490
S113012011C0E2ECF0E080818E7F9C85892B808376
S113013081E090E038C0E2ECF0E09081997F892B77
S113014080830DC0E2ECF0E0808186608083E1EC86
S1130150F0E080818460808381E080931401E2EC8C
S1130160F0E08081877F9F81892B808380818F7CD1
S11301709E81892B80838A85882329F0E1ECF0E035
S11301808081806180838B85882359F0E1ECF0E0E5
S113019080818860808380E090E005C081E090E009
S11301A002C080E090E0DF91CF910895E0ECF0E0B0
S11301B0908195FFFDCF8093C60080E090E0089584
S11301C00F931F93CF93DF93EC0109900020E9F77D
S11301D02197C81BD90B41F08C01F80181918F0143
S11301E00E94D6002197C9F7DF91CF911F910F91FB
S11301F00895DC0123E630E0E0ECF0E003C0215098
S1130200310949F090819923D4F78091C6008C93E9
S113021080E090E0089581E090E00895CF93DF932B
S1130220CDB7DEB7A2970FB6F894DEBF0FBECDBF31
S1130230CE0101960E94530080E09BE4A0E0B0E070
S113024089839A83AB83BC831D8286E08E831F825D
S1130250188681E08B878C87CE0101960E94670007
S1130260892B09F0FFCF84E1E0E0F1E0DE011E9686
S113027001900D928A95E1F7CE010E960E94E0005E
S1130280CE0182960E94F900892BD1F78AA190E0D1
S113029001960E94D600F4CFA1E21A2EAA1BBB1B22
S11302A0FD010DC0AA1FBB1FEE1FFF1FA217B3073E
S11302B0E407F50720F0A21BB30BE40BF50B661F54
S11302C0771F881F991F1A9469F760957095809518
S11302D090959B01AC01BD01CF010895F894FFCF27
S11302E068656C6C6F2041746D65676120333238CA
S10702F070210A006B
S9030000FC
